{
  "_format": "hh-sol-artifact-1",
  "contractName": "FistBumpPortal",
  "sourceName": "contracts/FistBumpPortal.sol",
  "abi": [
    {
      "inputs": [],
      "stateMutability": "nonpayable",
      "type": "constructor"
    },
    {
      "anonymous": false,
      "inputs": [
        {
          "indexed": true,
          "internalType": "address",
          "name": "from",
          "type": "address"
        },
        {
          "indexed": false,
          "internalType": "uint256",
          "name": "timestamp",
          "type": "uint256"
        },
        {
          "indexed": false,
          "internalType": "string",
          "name": "message",
          "type": "string"
        }
      ],
      "name": "NewFistBump",
      "type": "event"
    },
    {
      "inputs": [
        {
          "internalType": "string",
          "name": "_message",
          "type": "string"
        }
      ],
      "name": "fistBump",
      "outputs": [],
      "stateMutability": "nonpayable",
      "type": "function"
    },
    {
      "inputs": [],
      "name": "getAllFistBumps",
      "outputs": [
        {
          "components": [
            {
              "internalType": "address",
              "name": "fistBumpFrom",
              "type": "address"
            },
            {
              "internalType": "string",
              "name": "message",
              "type": "string"
            },
            {
              "internalType": "uint256",
              "name": "timestamp",
              "type": "uint256"
            }
          ],
          "internalType": "struct FistBumpPortal.FistBump[]",
          "name": "",
          "type": "tuple[]"
        }
      ],
      "stateMutability": "view",
      "type": "function"
    },
    {
      "inputs": [],
      "name": "getTotalFistBumps",
      "outputs": [
        {
          "internalType": "uint256",
          "name": "",
          "type": "uint256"
        }
      ],
      "stateMutability": "view",
      "type": "function"
    }
  ],
  "bytecode": "0x60806040523480156200001157600080fd5b506200004160405180606001604052806025815260200162000d11602591396200004760201b6200036f1760201c565b620001db565b620000e7816040516024016200005e919062000154565b6040516020818303038152906040527f41304fac000000000000000000000000000000000000000000000000000000007bffffffffffffffffffffffffffffffffffffffffffffffffffffffff19166020820180517bffffffffffffffffffffffffffffffffffffffffffffffffffffffff8381831617835250505050620000ea60201b60201c565b50565b60008151905060006a636f6e736f6c652e6c6f679050602083016000808483855afa5050505050565b6000620001208262000178565b6200012c818562000183565b93506200013e81856020860162000194565b6200014981620001ca565b840191505092915050565b6000602082019050818103600083015262000170818462000113565b905092915050565b600081519050919050565b600082825260208201905092915050565b60005b83811015620001b457808201518184015260208101905062000197565b83811115620001c4576000848401525b50505050565b6000601f19601f8301169050919050565b610b2680620001eb6000396000f3fe608060405234801561001057600080fd5b50600436106100415760003560e01c80634a7d1e0514610046578063b015b5ec14610064578063ca91e74e14610082575b600080fd5b61004e61009e565b60405161005b9190610814565b60405180910390f35b61006c6100a7565b60405161007991906107a0565b60405180910390f35b61009c600480360381019061009791906105d8565b6101f8565b005b60008054905090565b60606001805480602002602001604051908101604052809291908181526020016000905b828210156101ef57838290600052602060002090600302016040518060600160405290816000820160009054906101000a900473ffffffffffffffffffffffffffffffffffffffff1673ffffffffffffffffffffffffffffffffffffffff1673ffffffffffffffffffffffffffffffffffffffff168152602001600182018054610154906109ef565b80601f0160208091040260200160405190810160405280929190818152602001828054610180906109ef565b80156101cd5780601f106101a2576101008083540402835291602001916101cd565b820191906000526020600020905b8154815290600101906020018083116101b057829003601f168201915b50505050508152602001600282015481525050815260200190600101906100cb565b50505050905090565b600160008082825461020a919061091b565b925050819055506102506040518060400160405280601281526020017f257320686173206669737462756d70276421000000000000000000000000000081525033610408565b600160405180606001604052803373ffffffffffffffffffffffffffffffffffffffff16815260200183815260200142815250908060018154018082558091505060019003906000526020600020906003020160009091909190915060008201518160000160006101000a81548173ffffffffffffffffffffffffffffffffffffffff021916908373ffffffffffffffffffffffffffffffffffffffff160217905550602082015181600101908051906020019061030f9291906104cd565b506040820151816002015550503373ffffffffffffffffffffffffffffffffffffffff167fae5ab957db381e1b307a71a9cd9779115b41491b26e5430ff9300ccf001d17cd428360405161036492919061082f565b60405180910390a250565b6104058160405160240161038391906107c2565b6040516020818303038152906040527f41304fac000000000000000000000000000000000000000000000000000000007bffffffffffffffffffffffffffffffffffffffffffffffffffffffff19166020820180517bffffffffffffffffffffffffffffffffffffffffffffffffffffffff83818316178352505050506104a4565b50565b6104a0828260405160240161041e9291906107e4565b6040516020818303038152906040527f319af333000000000000000000000000000000000000000000000000000000007bffffffffffffffffffffffffffffffffffffffffffffffffffffffff19166020820180517bffffffffffffffffffffffffffffffffffffffffffffffffffffffff83818316178352505050506104a4565b5050565b60008151905060006a636f6e736f6c652e6c6f679050602083016000808483855afa5050505050565b8280546104d9906109ef565b90600052602060002090601f0160209004810192826104fb5760008555610542565b82601f1061051457805160ff1916838001178555610542565b82800160010185558215610542579182015b82811115610541578251825591602001919060010190610526565b5b50905061054f9190610553565b5090565b5b8082111561056c576000816000905550600101610554565b5090565b600061058361057e84610884565b61085f565b90508281526020810184848401111561059b57600080fd5b6105a68482856109ad565b509392505050565b600082601f8301126105bf57600080fd5b81356105cf848260208601610570565b91505092915050565b6000602082840312156105ea57600080fd5b600082013567ffffffffffffffff81111561060457600080fd5b610610848285016105ae565b91505092915050565b60006106258383610732565b905092915050565b61063681610971565b82525050565b61064581610971565b82525050565b6000610656826108c5565b61066081856108e8565b935083602082028501610672856108b5565b8060005b858110156106ae578484038952815161068f8582610619565b945061069a836108db565b925060208a01995050600181019050610676565b50829750879550505050505092915050565b60006106cb826108d0565b6106d581856108f9565b93506106e58185602086016109bc565b6106ee81610adf565b840191505092915050565b6000610704826108d0565b61070e818561090a565b935061071e8185602086016109bc565b61072781610adf565b840191505092915050565b600060608301600083015161074a600086018261062d565b506020830151848203602086015261076282826106c0565b91505060408301516107776040860182610782565b508091505092915050565b61078b816109a3565b82525050565b61079a816109a3565b82525050565b600060208201905081810360008301526107ba818461064b565b905092915050565b600060208201905081810360008301526107dc81846106f9565b905092915050565b600060408201905081810360008301526107fe81856106f9565b905061080d602083018461063c565b9392505050565b60006020820190506108296000830184610791565b92915050565b60006040820190506108446000830185610791565b818103602083015261085681846106f9565b90509392505050565b600061086961087a565b90506108758282610a21565b919050565b6000604051905090565b600067ffffffffffffffff82111561089f5761089e610ab0565b5b6108a882610adf565b9050602081019050919050565b6000819050602082019050919050565b600081519050919050565b600081519050919050565b6000602082019050919050565b600082825260208201905092915050565b600082825260208201905092915050565b600082825260208201905092915050565b6000610926826109a3565b9150610931836109a3565b9250827fffffffffffffffffffffffffffffffffffffffffffffffffffffffffffffffff0382111561096657610965610a52565b5b828201905092915050565b600061097c82610983565b9050919050565b600073ffffffffffffffffffffffffffffffffffffffff82169050919050565b6000819050919050565b82818337600083830152505050565b60005b838110156109da5780820151818401526020810190506109bf565b838111156109e9576000848401525b50505050565b60006002820490506001821680610a0757607f821691505b60208210811415610a1b57610a1a610a81565b5b50919050565b610a2a82610adf565b810181811067ffffffffffffffff82111715610a4957610a48610ab0565b5b80604052505050565b7f4e487b7100000000000000000000000000000000000000000000000000000000600052601160045260246000fd5b7f4e487b7100000000000000000000000000000000000000000000000000000000600052602260045260246000fd5b7f4e487b7100000000000000000000000000000000000000000000000000000000600052604160045260246000fd5b6000601f19601f830116905091905056fea264697066735822122084f8110e49ea731164b2fde75246abaf5c5c317be7bca7391c467cd4cbbd6eba64736f6c63430008040033596f2120546869732069732074686520666972737420736d61727420636f6e747261637421",
  "linkReferences": {},
  "deployedLinkReferences": {}
}