{
  "_format": "hh-sol-artifact-1",
  "contractName": "FistBumpPortal",
  "sourceName": "contracts/FistBumpPortal.sol",
  "abi": [
    {
      "inputs": [],
      "stateMutability": "payable",
      "type": "constructor"
    },
    {
      "anonymous": false,
      "inputs": [
        {
          "indexed": true,
          "internalType": "address",
          "name": "from",
          "type": "address"
        },
        {
          "indexed": false,
          "internalType": "uint256",
          "name": "timestamp",
          "type": "uint256"
        },
        {
          "indexed": false,
          "internalType": "string",
          "name": "message",
          "type": "string"
        },
        {
          "indexed": false,
          "internalType": "string",
          "name": "link",
          "type": "string"
        }
      ],
      "name": "NewFistBump",
      "type": "event"
    },
    {
      "inputs": [
        {
          "internalType": "string",
          "name": "_message",
          "type": "string"
        },
        {
          "internalType": "string",
          "name": "_link",
          "type": "string"
        }
      ],
      "name": "fistBump",
      "outputs": [],
      "stateMutability": "nonpayable",
      "type": "function"
    },
    {
      "inputs": [],
      "name": "getAllFistBumps",
      "outputs": [
        {
          "components": [
            {
              "internalType": "address",
              "name": "fistBumpFrom",
              "type": "address"
            },
            {
              "internalType": "string",
              "name": "message",
              "type": "string"
            },
            {
              "internalType": "string",
              "name": "link",
              "type": "string"
            },
            {
              "internalType": "uint256",
              "name": "timestamp",
              "type": "uint256"
            }
          ],
          "internalType": "struct FistBumpPortal.FistBump[]",
          "name": "",
          "type": "tuple[]"
        }
      ],
      "stateMutability": "view",
      "type": "function"
    },
    {
      "inputs": [],
      "name": "getTotalFistBumps",
      "outputs": [
        {
          "internalType": "uint256",
          "name": "",
          "type": "uint256"
        }
      ],
      "stateMutability": "view",
      "type": "function"
    }
  ],
  "bytecode": "0x6080604052620000336040518060600160405280602581526020016200107b602591396200003960201b620005231760201c565b620001cd565b620000d98160405160240162000050919062000146565b6040516020818303038152906040527f41304fac000000000000000000000000000000000000000000000000000000007bffffffffffffffffffffffffffffffffffffffffffffffffffffffff19166020820180517bffffffffffffffffffffffffffffffffffffffffffffffffffffffff8381831617835250505050620000dc60201b60201c565b50565b60008151905060006a636f6e736f6c652e6c6f679050602083016000808483855afa5050505050565b600062000112826200016a565b6200011e818562000175565b93506200013081856020860162000186565b6200013b81620001bc565b840191505092915050565b6000602082019050818103600083015262000162818462000105565b905092915050565b600081519050919050565b600082825260208201905092915050565b60005b83811015620001a657808201518184015260208101905062000189565b83811115620001b6576000848401525b50505050565b6000601f19601f8301169050919050565b610e9e80620001dd6000396000f3fe608060405234801561001057600080fd5b50600436106100415760003560e01c80634a7d1e051461004657806379f8d5e914610064578063b015b5ec14610080575b600080fd5b61004e61009e565b60405161005b9190610acb565b60405180910390f35b61007e6004803603810190610079919061078c565b6100a7565b005b610088610340565b6040516100959190610a17565b60405180910390f35b60008054905090565b60016000808282546100b99190610bf2565b925050819055506100ff6040518060400160405280601281526020017f257320686173206669737462756d702764210000000000000000000000000000815250336105bc565b600160405180608001604052803373ffffffffffffffffffffffffffffffffffffffff16815260200184815260200183815260200142815250908060018154018082558091505060019003906000526020600020906004020160009091909190915060008201518160000160006101000a81548173ffffffffffffffffffffffffffffffffffffffff021916908373ffffffffffffffffffffffffffffffffffffffff16021790555060208201518160010190805190602001906101c4929190610681565b5060408201518160020190805190602001906101e1929190610681565b506060820151816003015550503373ffffffffffffffffffffffffffffffffffffffff167fee280e888baf51f8a0700160279dd797669a3b8545e5abef9be2570070404e0042848460405161023893929190610ae6565b60405180910390a26000655af3107a400090504781111561028e576040517f08c379a000000000000000000000000000000000000000000000000000000000815260040161028590610a8b565b60405180910390fd5b60003373ffffffffffffffffffffffffffffffffffffffff16826040516102b490610a02565b60006040518083038185875af1925050503d80600081146102f1576040519150601f19603f3d011682016040523d82523d6000602084013e6102f6565b606091505b505090508061033a576040517f08c379a000000000000000000000000000000000000000000000000000000000815260040161033190610aab565b60405180910390fd5b50505050565b60606001805480602002602001604051908101604052809291908181526020016000905b8282101561051a57838290600052602060002090600402016040518060800160405290816000820160009054906101000a900473ffffffffffffffffffffffffffffffffffffffff1673ffffffffffffffffffffffffffffffffffffffff1673ffffffffffffffffffffffffffffffffffffffff1681526020016001820180546103ed90610cc6565b80601f016020809104026020016040519081016040528092919081815260200182805461041990610cc6565b80156104665780601f1061043b57610100808354040283529160200191610466565b820191906000526020600020905b81548152906001019060200180831161044957829003601f168201915b5050505050815260200160028201805461047f90610cc6565b80601f01602080910402602001604051908101604052809291908181526020018280546104ab90610cc6565b80156104f85780601f106104cd576101008083540402835291602001916104f8565b820191906000526020600020905b8154815290600101906020018083116104db57829003601f168201915b5050505050815260200160038201548152505081526020019060010190610364565b50505050905090565b6105b9816040516024016105379190610a39565b6040516020818303038152906040527f41304fac000000000000000000000000000000000000000000000000000000007bffffffffffffffffffffffffffffffffffffffffffffffffffffffff19166020820180517bffffffffffffffffffffffffffffffffffffffffffffffffffffffff8381831617835250505050610658565b50565b61065482826040516024016105d2929190610a5b565b6040516020818303038152906040527f319af333000000000000000000000000000000000000000000000000000000007bffffffffffffffffffffffffffffffffffffffffffffffffffffffff19166020820180517bffffffffffffffffffffffffffffffffffffffffffffffffffffffff8381831617835250505050610658565b5050565b60008151905060006a636f6e736f6c652e6c6f679050602083016000808483855afa5050505050565b82805461068d90610cc6565b90600052602060002090601f0160209004810192826106af57600085556106f6565b82601f106106c857805160ff19168380011785556106f6565b828001600101855582156106f6579182015b828111156106f55782518255916020019190600101906106da565b5b5090506107039190610707565b5090565b5b80821115610720576000816000905550600101610708565b5090565b600061073761073284610b50565b610b2b565b90508281526020810184848401111561074f57600080fd5b61075a848285610c84565b509392505050565b600082601f83011261077357600080fd5b8135610783848260208601610724565b91505092915050565b6000806040838503121561079f57600080fd5b600083013567ffffffffffffffff8111156107b957600080fd5b6107c585828601610762565b925050602083013567ffffffffffffffff8111156107e257600080fd5b6107ee85828601610762565b9150509250929050565b6000610804838361097a565b905092915050565b61081581610c48565b82525050565b61082481610c48565b82525050565b600061083582610b91565b61083f8185610bb4565b93508360208202850161085185610b81565b8060005b8581101561088d578484038952815161086e85826107f8565b945061087983610ba7565b925060208a01995050600181019050610855565b50829750879550505050505092915050565b60006108aa82610b9c565b6108b48185610bd0565b93506108c4818560208601610c93565b6108cd81610db6565b840191505092915050565b60006108e382610b9c565b6108ed8185610be1565b93506108fd818560208601610c93565b61090681610db6565b840191505092915050565b600061091e603483610be1565b915061092982610dc7565b604082019050919050565b6000610941600083610bc5565b915061094c82610e16565b600082019050919050565b6000610964602883610be1565b915061096f82610e19565b604082019050919050565b6000608083016000830151610992600086018261080c565b50602083015184820360208601526109aa828261089f565b915050604083015184820360408601526109c4828261089f565b91505060608301516109d960608601826109e4565b508091505092915050565b6109ed81610c7a565b82525050565b6109fc81610c7a565b82525050565b6000610a0d82610934565b9150819050919050565b60006020820190508181036000830152610a31818461082a565b905092915050565b60006020820190508181036000830152610a5381846108d8565b905092915050565b60006040820190508181036000830152610a7581856108d8565b9050610a84602083018461081b565b9392505050565b60006020820190508181036000830152610aa481610911565b9050919050565b60006020820190508181036000830152610ac481610957565b9050919050565b6000602082019050610ae060008301846109f3565b92915050565b6000606082019050610afb60008301866109f3565b8181036020830152610b0d81856108d8565b90508181036040830152610b2181846108d8565b9050949350505050565b6000610b35610b46565b9050610b418282610cf8565b919050565b6000604051905090565b600067ffffffffffffffff821115610b6b57610b6a610d87565b5b610b7482610db6565b9050602081019050919050565b6000819050602082019050919050565b600081519050919050565b600081519050919050565b6000602082019050919050565b600082825260208201905092915050565b600081905092915050565b600082825260208201905092915050565b600082825260208201905092915050565b6000610bfd82610c7a565b9150610c0883610c7a565b9250827fffffffffffffffffffffffffffffffffffffffffffffffffffffffffffffffff03821115610c3d57610c3c610d29565b5b828201905092915050565b6000610c5382610c5a565b9050919050565b600073ffffffffffffffffffffffffffffffffffffffff82169050919050565b6000819050919050565b82818337600083830152505050565b60005b83811015610cb1578082015181840152602081019050610c96565b83811115610cc0576000848401525b50505050565b60006002820490506001821680610cde57607f821691505b60208210811415610cf257610cf1610d58565b5b50919050565b610d0182610db6565b810181811067ffffffffffffffff82111715610d2057610d1f610d87565b5b80604052505050565b7f4e487b7100000000000000000000000000000000000000000000000000000000600052601160045260246000fd5b7f4e487b7100000000000000000000000000000000000000000000000000000000600052602260045260246000fd5b7f4e487b7100000000000000000000000000000000000000000000000000000000600052604160045260246000fd5b6000601f19601f8301169050919050565b7f547279696e6720746f207769746864726177206d6f7265206d6f6e657920746860008201527f616e2074686520636f6e7472616374206861732e000000000000000000000000602082015250565b50565b7f4661696c656420746f207769746864726177206d6f6e656e792066726f6d206360008201527f6f6e74726163742e00000000000000000000000000000000000000000000000060208201525056fea26469706673582212200e34249ee2ef7832e6795c2653d75e3052bfe7f3c889af1ed44741f4b2250b5a64736f6c63430008040033596f2120546869732069732074686520666972737420736d61727420636f6e747261637421",
  "linkReferences": {},
  "deployedLinkReferences": {}
}