{
  "_format": "hh-sol-artifact-1",
  "contractName": "FistBumpPortal",
  "sourceName": "contracts/FistBumpPortal.sol",
  "abi": [
    {
      "inputs": [],
      "stateMutability": "payable",
      "type": "constructor"
    },
    {
      "anonymous": false,
      "inputs": [
        {
          "indexed": true,
          "internalType": "address",
          "name": "from",
          "type": "address"
        },
        {
          "indexed": false,
          "internalType": "uint256",
          "name": "timestamp",
          "type": "uint256"
        },
        {
          "indexed": false,
          "internalType": "string",
          "name": "message",
          "type": "string"
        },
        {
          "indexed": false,
          "internalType": "string",
          "name": "link",
          "type": "string"
        }
      ],
      "name": "NewFistBump",
      "type": "event"
    },
    {
      "inputs": [
        {
          "internalType": "string",
          "name": "_message",
          "type": "string"
        },
        {
          "internalType": "string",
          "name": "_link",
          "type": "string"
        }
      ],
      "name": "fistBump",
      "outputs": [],
      "stateMutability": "nonpayable",
      "type": "function"
    },
    {
      "inputs": [],
      "name": "getAllFistBumps",
      "outputs": [
        {
          "components": [
            {
              "internalType": "address",
              "name": "fistBumpFrom",
              "type": "address"
            },
            {
              "internalType": "string",
              "name": "message",
              "type": "string"
            },
            {
              "internalType": "string",
              "name": "link",
              "type": "string"
            },
            {
              "internalType": "uint256",
              "name": "timestamp",
              "type": "uint256"
            }
          ],
          "internalType": "struct FistBumpPortal.FistBump[]",
          "name": "",
          "type": "tuple[]"
        }
      ],
      "stateMutability": "view",
      "type": "function"
    },
    {
      "inputs": [],
      "name": "getTotalFistBumps",
      "outputs": [
        {
          "internalType": "uint256",
          "name": "",
          "type": "uint256"
        }
      ],
      "stateMutability": "view",
      "type": "function"
    },
    {
      "inputs": [
        {
          "internalType": "address",
          "name": "",
          "type": "address"
        }
      ],
      "name": "lastFistBumpedAt",
      "outputs": [
        {
          "internalType": "uint256",
          "name": "",
          "type": "uint256"
        }
      ],
      "stateMutability": "view",
      "type": "function"
    }
  ],
  "bytecode": "0x60806040526200003360405180606001604052806025815260200162001446602591396200003960201b620007011760201c565b620001cd565b620000d98160405160240162000050919062000146565b6040516020818303038152906040527f41304fac000000000000000000000000000000000000000000000000000000007bffffffffffffffffffffffffffffffffffffffffffffffffffffffff19166020820180517bffffffffffffffffffffffffffffffffffffffffffffffffffffffff8381831617835250505050620000dc60201b60201c565b50565b60008151905060006a636f6e736f6c652e6c6f679050602083016000808483855afa5050505050565b600062000112826200016a565b6200011e818562000175565b93506200013081856020860162000186565b6200013b81620001bc565b840191505092915050565b6000602082019050818103600083015262000162818462000105565b905092915050565b600081519050919050565b600082825260208201905092915050565b60005b83811015620001a657808201518184015260208101905062000189565b83811115620001b6576000848401525b50505050565b6000601f19601f8301169050919050565b61126980620001dd6000396000f3fe608060405234801561001057600080fd5b506004361061004c5760003560e01c80634a7d1e051461005157806379f8d5e91461006f578063b015b5ec1461008b578063d5126c0f146100a9575b600080fd5b6100596100d9565b6040516100669190610df6565b60405180910390f35b61008960048036038101906100849190610a44565b6100e2565b005b610093610506565b6040516100a09190610cf2565b60405180910390f35b6100c360048036038101906100be9190610a1b565b6106e9565b6040516100d09190610df6565b60405180910390f35b60008054905090565b42610384600360003373ffffffffffffffffffffffffffffffffffffffff1673ffffffffffffffffffffffffffffffffffffffff168152602001908152602001600020546101309190610f1d565b10610170576040517f08c379a000000000000000000000000000000000000000000000000000000000815260040161016790610db6565b60405180910390fd5b42600360003373ffffffffffffffffffffffffffffffffffffffff1673ffffffffffffffffffffffffffffffffffffffff1681526020019081526020016000208190555060016000808282546101c69190610f1d565b9250508190555061020c6040518060400160405280601281526020017f257320686173206669737462756d7027642100000000000000000000000000008152503361079a565b600260405180608001604052803373ffffffffffffffffffffffffffffffffffffffff16815260200184815260200183815260200142815250908060018154018082558091505060019003906000526020600020906004020160009091909190915060008201518160000160006101000a81548173ffffffffffffffffffffffffffffffffffffffff021916908373ffffffffffffffffffffffffffffffffffffffff16021790555060208201518160010190805190602001906102d19291906108fb565b5060408201518160020190805190602001906102ee9291906108fb565b5060608201518160030155505060006064600154424461030e9190610f1d565b6103189190610f1d565b6103229190611054565b90506103636040518060400160405280601681526020017f52616e646f6d20232067656e6572617465643a2025730000000000000000000081525082610836565b8060018190555060328110156104af576103b26040518060400160405280600781526020017f257320776f6e21000000000000000000000000000000000000000000000000008152503361079a565b6000655af3107a4000905047811115610400576040517f08c379a00000000000000000000000000000000000000000000000000000000081526004016103f790610d96565b60405180910390fd5b60003373ffffffffffffffffffffffffffffffffffffffff168260405161042690610cdd565b60006040518083038185875af1925050503d8060008114610463576040519150601f19603f3d011682016040523d82523d6000602084013e610468565b606091505b50509050806104ac576040517f08c379a00000000000000000000000000000000000000000000000000000000081526004016104a390610dd6565b60405180910390fd5b50505b3373ffffffffffffffffffffffffffffffffffffffff167fee280e888baf51f8a0700160279dd797669a3b8545e5abef9be2570070404e004285856040516104f993929190610e11565b60405180910390a2505050565b60606002805480602002602001604051908101604052809291908181526020016000905b828210156106e057838290600052602060002090600402016040518060800160405290816000820160009054906101000a900473ffffffffffffffffffffffffffffffffffffffff1673ffffffffffffffffffffffffffffffffffffffff1673ffffffffffffffffffffffffffffffffffffffff1681526020016001820180546105b390610ff1565b80601f01602080910402602001604051908101604052809291908181526020018280546105df90610ff1565b801561062c5780601f106106015761010080835404028352916020019161062c565b820191906000526020600020905b81548152906001019060200180831161060f57829003601f168201915b5050505050815260200160028201805461064590610ff1565b80601f016020809104026020016040519081016040528092919081815260200182805461067190610ff1565b80156106be5780601f10610693576101008083540402835291602001916106be565b820191906000526020600020905b8154815290600101906020018083116106a157829003601f168201915b505050505081526020016003820154815250508152602001906001019061052a565b50505050905090565b60036020528060005260406000206000915090505481565b610797816040516024016107159190610d14565b6040516020818303038152906040527f41304fac000000000000000000000000000000000000000000000000000000007bffffffffffffffffffffffffffffffffffffffffffffffffffffffff19166020820180517bffffffffffffffffffffffffffffffffffffffffffffffffffffffff83818316178352505050506108d2565b50565b61083282826040516024016107b0929190610d36565b6040516020818303038152906040527f319af333000000000000000000000000000000000000000000000000000000007bffffffffffffffffffffffffffffffffffffffffffffffffffffffff19166020820180517bffffffffffffffffffffffffffffffffffffffffffffffffffffffff83818316178352505050506108d2565b5050565b6108ce828260405160240161084c929190610d66565b6040516020818303038152906040527f9710a9d0000000000000000000000000000000000000000000000000000000007bffffffffffffffffffffffffffffffffffffffffffffffffffffffff19166020820180517bffffffffffffffffffffffffffffffffffffffffffffffffffffffff83818316178352505050506108d2565b5050565b60008151905060006a636f6e736f6c652e6c6f679050602083016000808483855afa5050505050565b82805461090790610ff1565b90600052602060002090601f0160209004810192826109295760008555610970565b82601f1061094257805160ff1916838001178555610970565b82800160010185558215610970579182015b8281111561096f578251825591602001919060010190610954565b5b50905061097d9190610981565b5090565b5b8082111561099a576000816000905550600101610982565b5090565b60006109b16109ac84610e7b565b610e56565b9050828152602081018484840111156109c957600080fd5b6109d4848285610faf565b509392505050565b6000813590506109eb8161121c565b92915050565b600082601f830112610a0257600080fd5b8135610a1284826020860161099e565b91505092915050565b600060208284031215610a2d57600080fd5b6000610a3b848285016109dc565b91505092915050565b60008060408385031215610a5757600080fd5b600083013567ffffffffffffffff811115610a7157600080fd5b610a7d858286016109f1565b925050602083013567ffffffffffffffff811115610a9a57600080fd5b610aa6858286016109f1565b9150509250929050565b6000610abc8383610c55565b905092915050565b610acd81610f73565b82525050565b610adc81610f73565b82525050565b6000610aed82610ebc565b610af78185610edf565b935083602082028501610b0985610eac565b8060005b85811015610b455784840389528151610b268582610ab0565b9450610b3183610ed2565b925060208a01995050600181019050610b0d565b50829750879550505050505092915050565b6000610b6282610ec7565b610b6c8185610efb565b9350610b7c818560208601610fbe565b610b8581611141565b840191505092915050565b6000610b9b82610ec7565b610ba58185610f0c565b9350610bb5818560208601610fbe565b610bbe81611141565b840191505092915050565b6000610bd6603483610f0c565b9150610be182611152565b604082019050919050565b6000610bf9601783610f0c565b9150610c04826111a1565b602082019050919050565b6000610c1c600083610ef0565b9150610c27826111ca565b600082019050919050565b6000610c3f602883610f0c565b9150610c4a826111cd565b604082019050919050565b6000608083016000830151610c6d6000860182610ac4565b5060208301518482036020860152610c858282610b57565b91505060408301518482036040860152610c9f8282610b57565b9150506060830151610cb46060860182610cbf565b508091505092915050565b610cc881610fa5565b82525050565b610cd781610fa5565b82525050565b6000610ce882610c0f565b9150819050919050565b60006020820190508181036000830152610d0c8184610ae2565b905092915050565b60006020820190508181036000830152610d2e8184610b90565b905092915050565b60006040820190508181036000830152610d508185610b90565b9050610d5f6020830184610ad3565b9392505050565b60006040820190508181036000830152610d808185610b90565b9050610d8f6020830184610cce565b9392505050565b60006020820190508181036000830152610daf81610bc9565b9050919050565b60006020820190508181036000830152610dcf81610bec565b9050919050565b60006020820190508181036000830152610def81610c32565b9050919050565b6000602082019050610e0b6000830184610cce565b92915050565b6000606082019050610e266000830186610cce565b8181036020830152610e388185610b90565b90508181036040830152610e4c8184610b90565b9050949350505050565b6000610e60610e71565b9050610e6c8282611023565b919050565b6000604051905090565b600067ffffffffffffffff821115610e9657610e95611112565b5b610e9f82611141565b9050602081019050919050565b6000819050602082019050919050565b600081519050919050565b600081519050919050565b6000602082019050919050565b600082825260208201905092915050565b600081905092915050565b600082825260208201905092915050565b600082825260208201905092915050565b6000610f2882610fa5565b9150610f3383610fa5565b9250827fffffffffffffffffffffffffffffffffffffffffffffffffffffffffffffffff03821115610f6857610f67611085565b5b828201905092915050565b6000610f7e82610f85565b9050919050565b600073ffffffffffffffffffffffffffffffffffffffff82169050919050565b6000819050919050565b82818337600083830152505050565b60005b83811015610fdc578082015181840152602081019050610fc1565b83811115610feb576000848401525b50505050565b6000600282049050600182168061100957607f821691505b6020821081141561101d5761101c6110e3565b5b50919050565b61102c82611141565b810181811067ffffffffffffffff8211171561104b5761104a611112565b5b80604052505050565b600061105f82610fa5565b915061106a83610fa5565b92508261107a576110796110b4565b5b828206905092915050565b7f4e487b7100000000000000000000000000000000000000000000000000000000600052601160045260246000fd5b7f4e487b7100000000000000000000000000000000000000000000000000000000600052601260045260246000fd5b7f4e487b7100000000000000000000000000000000000000000000000000000000600052602260045260246000fd5b7f4e487b7100000000000000000000000000000000000000000000000000000000600052604160045260246000fd5b6000601f19601f8301169050919050565b7f547279696e6720746f207769746864726177206d6f7265206d6f6e657920746860008201527f616e2074686520636f6e7472616374206861732e000000000000000000000000602082015250565b7f506c656173652077616974203135206d696e7574657321000000000000000000600082015250565b50565b7f4661696c656420746f207769746864726177206d6f6e656e792066726f6d206360008201527f6f6e74726163742e000000000000000000000000000000000000000000000000602082015250565b61122581610f73565b811461123057600080fd5b5056fea2646970667358221220fb897c2247e7836743b899ecab258d4b556dcb875fa6f1f8b2683a89c99456e064736f6c63430008040033596f2120546869732069732074686520666972737420736d61727420636f6e747261637421",
  "linkReferences": {},
  "deployedLinkReferences": {}
}