{
  "_format": "hh-sol-artifact-1",
  "contractName": "FistBumpPortal",
  "sourceName": "contracts/FistBumpPortal.sol",
  "abi": [
    {
      "inputs": [],
      "stateMutability": "nonpayable",
      "type": "constructor"
    },
    {
      "anonymous": false,
      "inputs": [
        {
          "indexed": true,
          "internalType": "address",
          "name": "from",
          "type": "address"
        },
        {
          "indexed": false,
          "internalType": "uint256",
          "name": "timestamp",
          "type": "uint256"
        },
        {
          "indexed": false,
          "internalType": "string",
          "name": "message",
          "type": "string"
        },
        {
          "indexed": false,
          "internalType": "string",
          "name": "link",
          "type": "string"
        }
      ],
      "name": "NewFistBump",
      "type": "event"
    },
    {
      "inputs": [
        {
          "internalType": "string",
          "name": "_message",
          "type": "string"
        },
        {
          "internalType": "string",
          "name": "_link",
          "type": "string"
        }
      ],
      "name": "fistBump",
      "outputs": [],
      "stateMutability": "nonpayable",
      "type": "function"
    },
    {
      "inputs": [],
      "name": "getAllFistBumps",
      "outputs": [
        {
          "components": [
            {
              "internalType": "address",
              "name": "fistBumpFrom",
              "type": "address"
            },
            {
              "internalType": "string",
              "name": "message",
              "type": "string"
            },
            {
              "internalType": "string",
              "name": "link",
              "type": "string"
            },
            {
              "internalType": "uint256",
              "name": "timestamp",
              "type": "uint256"
            }
          ],
          "internalType": "struct FistBumpPortal.FistBump[]",
          "name": "",
          "type": "tuple[]"
        }
      ],
      "stateMutability": "view",
      "type": "function"
    },
    {
      "inputs": [],
      "name": "getTotalFistBumps",
      "outputs": [
        {
          "internalType": "uint256",
          "name": "",
          "type": "uint256"
        }
      ],
      "stateMutability": "view",
      "type": "function"
    }
  ],
  "bytecode": "0x60806040523480156200001157600080fd5b506200004160405180606001604052806025815260200162000e23602591396200004760201b620004271760201c565b620001db565b620000e7816040516024016200005e919062000154565b6040516020818303038152906040527f41304fac000000000000000000000000000000000000000000000000000000007bffffffffffffffffffffffffffffffffffffffffffffffffffffffff19166020820180517bffffffffffffffffffffffffffffffffffffffffffffffffffffffff8381831617835250505050620000ea60201b60201c565b50565b60008151905060006a636f6e736f6c652e6c6f679050602083016000808483855afa5050505050565b6000620001208262000178565b6200012c818562000183565b93506200013e81856020860162000194565b6200014981620001ca565b840191505092915050565b6000602082019050818103600083015262000170818462000113565b905092915050565b600081519050919050565b600082825260208201905092915050565b60005b83811015620001b457808201518184015260208101905062000197565b83811115620001c4576000848401525b50505050565b6000601f19601f8301169050919050565b610c3880620001eb6000396000f3fe608060405234801561001057600080fd5b50600436106100415760003560e01c80634a7d1e051461004657806379f8d5e914610064578063b015b5ec14610080575b600080fd5b61004e61009e565b60405161005b9190610911565b60405180910390f35b61007e60048036038101906100799190610690565b6100a7565b005b610088610244565b604051610095919061089d565b60405180910390f35b60008054905090565b60016000808282546100b99190610a2d565b925050819055506100ff6040518060400160405280601281526020017f257320686173206669737462756d702764210000000000000000000000000000815250336104c0565b600160405180608001604052803373ffffffffffffffffffffffffffffffffffffffff16815260200184815260200183815260200142815250908060018154018082558091505060019003906000526020600020906004020160009091909190915060008201518160000160006101000a81548173ffffffffffffffffffffffffffffffffffffffff021916908373ffffffffffffffffffffffffffffffffffffffff16021790555060208201518160010190805190602001906101c4929190610585565b5060408201518160020190805190602001906101e1929190610585565b506060820151816003015550503373ffffffffffffffffffffffffffffffffffffffff167fee280e888baf51f8a0700160279dd797669a3b8545e5abef9be2570070404e004284846040516102389392919061092c565b60405180910390a25050565b60606001805480602002602001604051908101604052809291908181526020016000905b8282101561041e57838290600052602060002090600402016040518060800160405290816000820160009054906101000a900473ffffffffffffffffffffffffffffffffffffffff1673ffffffffffffffffffffffffffffffffffffffff1673ffffffffffffffffffffffffffffffffffffffff1681526020016001820180546102f190610b01565b80601f016020809104026020016040519081016040528092919081815260200182805461031d90610b01565b801561036a5780601f1061033f5761010080835404028352916020019161036a565b820191906000526020600020905b81548152906001019060200180831161034d57829003601f168201915b5050505050815260200160028201805461038390610b01565b80601f01602080910402602001604051908101604052809291908181526020018280546103af90610b01565b80156103fc5780601f106103d1576101008083540402835291602001916103fc565b820191906000526020600020905b8154815290600101906020018083116103df57829003601f168201915b5050505050815260200160038201548152505081526020019060010190610268565b50505050905090565b6104bd8160405160240161043b91906108bf565b6040516020818303038152906040527f41304fac000000000000000000000000000000000000000000000000000000007bffffffffffffffffffffffffffffffffffffffffffffffffffffffff19166020820180517bffffffffffffffffffffffffffffffffffffffffffffffffffffffff838183161783525050505061055c565b50565b61055882826040516024016104d69291906108e1565b6040516020818303038152906040527f319af333000000000000000000000000000000000000000000000000000000007bffffffffffffffffffffffffffffffffffffffffffffffffffffffff19166020820180517bffffffffffffffffffffffffffffffffffffffffffffffffffffffff838183161783525050505061055c565b5050565b60008151905060006a636f6e736f6c652e6c6f679050602083016000808483855afa5050505050565b82805461059190610b01565b90600052602060002090601f0160209004810192826105b357600085556105fa565b82601f106105cc57805160ff19168380011785556105fa565b828001600101855582156105fa579182015b828111156105f95782518255916020019190600101906105de565b5b509050610607919061060b565b5090565b5b8082111561062457600081600090555060010161060c565b5090565b600061063b61063684610996565b610971565b90508281526020810184848401111561065357600080fd5b61065e848285610abf565b509392505050565b600082601f83011261067757600080fd5b8135610687848260208601610628565b91505092915050565b600080604083850312156106a357600080fd5b600083013567ffffffffffffffff8111156106bd57600080fd5b6106c985828601610666565b925050602083013567ffffffffffffffff8111156106e657600080fd5b6106f285828601610666565b9150509250929050565b60006107088383610815565b905092915050565b61071981610a83565b82525050565b61072881610a83565b82525050565b6000610739826109d7565b61074381856109fa565b935083602082028501610755856109c7565b8060005b85811015610791578484038952815161077285826106fc565b945061077d836109ed565b925060208a01995050600181019050610759565b50829750879550505050505092915050565b60006107ae826109e2565b6107b88185610a0b565b93506107c8818560208601610ace565b6107d181610bf1565b840191505092915050565b60006107e7826109e2565b6107f18185610a1c565b9350610801818560208601610ace565b61080a81610bf1565b840191505092915050565b600060808301600083015161082d6000860182610710565b506020830151848203602086015261084582826107a3565b9150506040830151848203604086015261085f82826107a3565b9150506060830151610874606086018261087f565b508091505092915050565b61088881610ab5565b82525050565b61089781610ab5565b82525050565b600060208201905081810360008301526108b7818461072e565b905092915050565b600060208201905081810360008301526108d981846107dc565b905092915050565b600060408201905081810360008301526108fb81856107dc565b905061090a602083018461071f565b9392505050565b6000602082019050610926600083018461088e565b92915050565b6000606082019050610941600083018661088e565b818103602083015261095381856107dc565b9050818103604083015261096781846107dc565b9050949350505050565b600061097b61098c565b90506109878282610b33565b919050565b6000604051905090565b600067ffffffffffffffff8211156109b1576109b0610bc2565b5b6109ba82610bf1565b9050602081019050919050565b6000819050602082019050919050565b600081519050919050565b600081519050919050565b6000602082019050919050565b600082825260208201905092915050565b600082825260208201905092915050565b600082825260208201905092915050565b6000610a3882610ab5565b9150610a4383610ab5565b9250827fffffffffffffffffffffffffffffffffffffffffffffffffffffffffffffffff03821115610a7857610a77610b64565b5b828201905092915050565b6000610a8e82610a95565b9050919050565b600073ffffffffffffffffffffffffffffffffffffffff82169050919050565b6000819050919050565b82818337600083830152505050565b60005b83811015610aec578082015181840152602081019050610ad1565b83811115610afb576000848401525b50505050565b60006002820490506001821680610b1957607f821691505b60208210811415610b2d57610b2c610b93565b5b50919050565b610b3c82610bf1565b810181811067ffffffffffffffff82111715610b5b57610b5a610bc2565b5b80604052505050565b7f4e487b7100000000000000000000000000000000000000000000000000000000600052601160045260246000fd5b7f4e487b7100000000000000000000000000000000000000000000000000000000600052602260045260246000fd5b7f4e487b7100000000000000000000000000000000000000000000000000000000600052604160045260246000fd5b6000601f19601f830116905091905056fea2646970667358221220e209842a8cee4dcbd0e9e314e243cf8f52e1cdbb64b99995d2a9f0593632771064736f6c63430008040033596f2120546869732069732074686520666972737420736d61727420636f6e747261637421",
  "linkReferences": {},
  "deployedLinkReferences": {}
}